{
  "_format": "hh-sol-artifact-1",
  "contractName": "Exchange",
  "sourceName": "contracts/Exchange.sol",
  "abi": [
    {
      "inputs": [
        {
          "internalType": "address",
          "name": "_CryptoDevtoken",
          "type": "address"
        }
      ],
      "stateMutability": "nonpayable",
      "type": "constructor"
    },
    {
      "anonymous": false,
      "inputs": [
        {
          "indexed": true,
          "internalType": "address",
          "name": "owner",
          "type": "address"
        },
        {
          "indexed": true,
          "internalType": "address",
          "name": "spender",
          "type": "address"
        },
        {
          "indexed": false,
          "internalType": "uint256",
          "name": "value",
          "type": "uint256"
        }
      ],
      "name": "Approval",
      "type": "event"
    },
    {
      "anonymous": false,
      "inputs": [
        {
          "indexed": true,
          "internalType": "address",
          "name": "from",
          "type": "address"
        },
        {
          "indexed": true,
          "internalType": "address",
          "name": "to",
          "type": "address"
        },
        {
          "indexed": false,
          "internalType": "uint256",
          "name": "value",
          "type": "uint256"
        }
      ],
      "name": "Transfer",
      "type": "event"
    },
    {
      "inputs": [
        {
          "internalType": "uint256",
          "name": "_amount",
          "type": "uint256"
        }
      ],
      "name": "addiquidity",
      "outputs": [
        {
          "internalType": "uint256",
          "name": "",
          "type": "uint256"
        }
      ],
      "stateMutability": "payable",
      "type": "function"
    },
    {
      "inputs": [
        {
          "internalType": "address",
          "name": "owner",
          "type": "address"
        },
        {
          "internalType": "address",
          "name": "spender",
          "type": "address"
        }
      ],
      "name": "allowance",
      "outputs": [
        {
          "internalType": "uint256",
          "name": "",
          "type": "uint256"
        }
      ],
      "stateMutability": "view",
      "type": "function"
    },
    {
      "inputs": [
        {
          "internalType": "address",
          "name": "spender",
          "type": "address"
        },
        {
          "internalType": "uint256",
          "name": "amount",
          "type": "uint256"
        }
      ],
      "name": "approve",
      "outputs": [
        {
          "internalType": "bool",
          "name": "",
          "type": "bool"
        }
      ],
      "stateMutability": "nonpayable",
      "type": "function"
    },
    {
      "inputs": [
        {
          "internalType": "address",
          "name": "account",
          "type": "address"
        }
      ],
      "name": "balanceOf",
      "outputs": [
        {
          "internalType": "uint256",
          "name": "",
          "type": "uint256"
        }
      ],
      "stateMutability": "view",
      "type": "function"
    },
    {
      "inputs": [
        {
          "internalType": "uint256",
          "name": "_tokensold",
          "type": "uint256"
        },
        {
          "internalType": "uint256",
          "name": "_minEth",
          "type": "uint256"
        }
      ],
      "name": "cryptoDevTokenToEth",
      "outputs": [],
      "stateMutability": "nonpayable",
      "type": "function"
    },
    {
      "inputs": [],
      "name": "cryptoDevsTokenAddress",
      "outputs": [
        {
          "internalType": "address",
          "name": "",
          "type": "address"
        }
      ],
      "stateMutability": "view",
      "type": "function"
    },
    {
      "inputs": [],
      "name": "decimals",
      "outputs": [
        {
          "internalType": "uint8",
          "name": "",
          "type": "uint8"
        }
      ],
      "stateMutability": "view",
      "type": "function"
    },
    {
      "inputs": [
        {
          "internalType": "address",
          "name": "spender",
          "type": "address"
        },
        {
          "internalType": "uint256",
          "name": "subtractedValue",
          "type": "uint256"
        }
      ],
      "name": "decreaseAllowance",
      "outputs": [
        {
          "internalType": "bool",
          "name": "",
          "type": "bool"
        }
      ],
      "stateMutability": "nonpayable",
      "type": "function"
    },
    {
      "inputs": [
        {
          "internalType": "uint256",
          "name": "_minTokens",
          "type": "uint256"
        }
      ],
      "name": "ethToCryptoDevToke",
      "outputs": [],
      "stateMutability": "payable",
      "type": "function"
    },
    {
      "inputs": [
        {
          "internalType": "uint256",
          "name": "inputAmount",
          "type": "uint256"
        },
        {
          "internalType": "uint256",
          "name": "inputReserve",
          "type": "uint256"
        },
        {
          "internalType": "uint256",
          "name": "outputReserve",
          "type": "uint256"
        }
      ],
      "name": "getAmountOfTokens",
      "outputs": [
        {
          "internalType": "uint256",
          "name": "",
          "type": "uint256"
        }
      ],
      "stateMutability": "pure",
      "type": "function"
    },
    {
      "inputs": [],
      "name": "getReserve",
      "outputs": [
        {
          "internalType": "uint256",
          "name": "",
          "type": "uint256"
        }
      ],
      "stateMutability": "view",
      "type": "function"
    },
    {
      "inputs": [
        {
          "internalType": "address",
          "name": "spender",
          "type": "address"
        },
        {
          "internalType": "uint256",
          "name": "addedValue",
          "type": "uint256"
        }
      ],
      "name": "increaseAllowance",
      "outputs": [
        {
          "internalType": "bool",
          "name": "",
          "type": "bool"
        }
      ],
      "stateMutability": "nonpayable",
      "type": "function"
    },
    {
      "inputs": [],
      "name": "name",
      "outputs": [
        {
          "internalType": "string",
          "name": "",
          "type": "string"
        }
      ],
      "stateMutability": "view",
      "type": "function"
    },
    {
      "inputs": [
        {
          "internalType": "uint256",
          "name": "_amount",
          "type": "uint256"
        }
      ],
      "name": "removeiquidity",
      "outputs": [
        {
          "internalType": "uint256",
          "name": "",
          "type": "uint256"
        },
        {
          "internalType": "uint256",
          "name": "",
          "type": "uint256"
        }
      ],
      "stateMutability": "nonpayable",
      "type": "function"
    },
    {
      "inputs": [],
      "name": "symbol",
      "outputs": [
        {
          "internalType": "string",
          "name": "",
          "type": "string"
        }
      ],
      "stateMutability": "view",
      "type": "function"
    },
    {
      "inputs": [],
      "name": "totalSupply",
      "outputs": [
        {
          "internalType": "uint256",
          "name": "",
          "type": "uint256"
        }
      ],
      "stateMutability": "view",
      "type": "function"
    },
    {
      "inputs": [
        {
          "internalType": "address",
          "name": "to",
          "type": "address"
        },
        {
          "internalType": "uint256",
          "name": "amount",
          "type": "uint256"
        }
      ],
      "name": "transfer",
      "outputs": [
        {
          "internalType": "bool",
          "name": "",
          "type": "bool"
        }
      ],
      "stateMutability": "nonpayable",
      "type": "function"
    },
    {
      "inputs": [
        {
          "internalType": "address",
          "name": "from",
          "type": "address"
        },
        {
          "internalType": "address",
          "name": "to",
          "type": "address"
        },
        {
          "internalType": "uint256",
          "name": "amount",
          "type": "uint256"
        }
      ],
      "name": "transferFrom",
      "outputs": [
        {
          "internalType": "bool",
          "name": "",
          "type": "bool"
        }
      ],
      "stateMutability": "nonpayable",
      "type": "function"
    }
  ],
  "bytecode": "0x60806040523480156200001157600080fd5b5060405162002b8d38038062002b8d8339818101604052810190620000379190620001ed565b6040518060400160405280601381526020017f43727970746f44657673204c5020546f6b656e000000000000000000000000008152506040518060400160405280600481526020017f43444c50000000000000000000000000000000000000000000000000000000008152508160039081620000b4919062000499565b508060049081620000c6919062000499565b505050600073ffffffffffffffffffffffffffffffffffffffff168173ffffffffffffffffffffffffffffffffffffffff16036200013b576040517f08c379a0000000000000000000000000000000000000000000000000000000008152600401620001329062000607565b60405180910390fd5b80600560006101000a81548173ffffffffffffffffffffffffffffffffffffffff021916908373ffffffffffffffffffffffffffffffffffffffff1602179055505062000629565b600080fd5b600073ffffffffffffffffffffffffffffffffffffffff82169050919050565b6000620001b58262000188565b9050919050565b620001c781620001a8565b8114620001d357600080fd5b50565b600081519050620001e781620001bc565b92915050565b60006020828403121562000206576200020562000183565b5b60006200021684828501620001d6565b91505092915050565b600081519050919050565b7f4e487b7100000000000000000000000000000000000000000000000000000000600052604160045260246000fd5b7f4e487b7100000000000000000000000000000000000000000000000000000000600052602260045260246000fd5b60006002820490506001821680620002a157607f821691505b602082108103620002b757620002b662000259565b5b50919050565b60008190508160005260206000209050919050565b60006020601f8301049050919050565b600082821b905092915050565b600060088302620003217fffffffffffffffffffffffffffffffffffffffffffffffffffffffffffffffff82620002e2565b6200032d8683620002e2565b95508019841693508086168417925050509392505050565b6000819050919050565b6000819050919050565b60006200037a620003746200036e8462000345565b6200034f565b62000345565b9050919050565b6000819050919050565b620003968362000359565b620003ae620003a58262000381565b848454620002ef565b825550505050565b600090565b620003c5620003b6565b620003d28184846200038b565b505050565b5b81811015620003fa57620003ee600082620003bb565b600181019050620003d8565b5050565b601f82111562000449576200041381620002bd565b6200041e84620002d2565b810160208510156200042e578190505b620004466200043d85620002d2565b830182620003d7565b50505b505050565b600082821c905092915050565b60006200046e600019846008026200044e565b1980831691505092915050565b60006200048983836200045b565b9150826002028217905092915050565b620004a4826200021f565b67ffffffffffffffff811115620004c057620004bf6200022a565b5b620004cc825462000288565b620004d9828285620003fe565b600060209050601f831160018114620005115760008415620004fc578287015190505b6200050885826200047b565b86555062000578565b601f1984166200052186620002bd565b60005b828110156200054b5784890151825560018201915060208501945060208101905062000524565b868310156200056b578489015162000567601f8916826200045b565b8355505b6001600288020188555050505b505050505050565b600082825260208201905092915050565b7f546f6b656e2061646472657373207061737365642069732061206e756c6c206160008201527f6464726573730000000000000000000000000000000000000000000000000000602082015250565b6000620005ef60268362000580565b9150620005fc8262000591565b604082019050919050565b600060208201905081810360008301526200062281620005e0565b9050919050565b61255480620006396000396000f3fe6080604052600436106101095760003560e01c806359bf5d391161009557806395d89b411161006457806395d89b4114610399578063a457c2d7146103c4578063a9059cbb14610401578063c8a03b851461043e578063dd62ed3e1461046e57610109565b806359bf5d39146102cb5780636c25a25a146102f657806370a082311461031f5780637386479e1461035c57610109565b806323b872dd116100dc57806323b872dd146101cc57806325956b0414610209578063313ce567146102255780633950935114610250578063478a4c5b1461028d57610109565b806306fdde031461010e578063095ea7b31461013957806318160ddd146101765780631ac68694146101a1575b600080fd5b34801561011a57600080fd5b506101236104ab565b60405161013091906117c1565b60405180910390f35b34801561014557600080fd5b50610160600480360381019061015b919061187c565b61053d565b60405161016d91906118d7565b60405180910390f35b34801561018257600080fd5b5061018b610560565b6040516101989190611901565b60405180910390f35b3480156101ad57600080fd5b506101b661056a565b6040516101c3919061192b565b60405180910390f35b3480156101d857600080fd5b506101f360048036038101906101ee9190611946565b610590565b60405161020091906118d7565b60405180910390f35b610223600480360381019061021e9190611999565b6105bf565b005b34801561023157600080fd5b5061023a6106cd565b60405161024791906119e2565b60405180910390f35b34801561025c57600080fd5b506102776004803603810190610272919061187c565b6106d6565b60405161028491906118d7565b60405180910390f35b34801561029957600080fd5b506102b460048036038101906102af9190611999565b61070d565b6040516102c29291906119fd565b60405180910390f35b3480156102d757600080fd5b506102e06108a2565b6040516102ed9190611901565b60405180910390f35b34801561030257600080fd5b5061031d60048036038101906103189190611a26565b610945565b005b34801561032b57600080fd5b5061034660048036038101906103419190611a66565b610a93565b6040516103539190611901565b60405180910390f35b34801561036857600080fd5b50610383600480360381019061037e9190611a93565b610adb565b6040516103909190611901565b60405180910390f35b3480156103a557600080fd5b506103ae610b80565b6040516103bb91906117c1565b60405180910390f35b3480156103d057600080fd5b506103eb60048036038101906103e6919061187c565b610c12565b6040516103f891906118d7565b60405180910390f35b34801561040d57600080fd5b506104286004803603810190610423919061187c565b610c89565b60405161043591906118d7565b60405180910390f35b61045860048036038101906104539190611999565b610cac565b6040516104659190611901565b60405180910390f35b34801561047a57600080fd5b5061049560048036038101906104909190611ae6565b610eaa565b6040516104a29190611901565b60405180910390f35b6060600380546104ba90611b55565b80601f01602080910402602001604051908101604052809291908181526020018280546104e690611b55565b80156105335780601f1061050857610100808354040283529160200191610533565b820191906000526020600020905b81548152906001019060200180831161051657829003601f168201915b5050505050905090565b600080610548610f31565b9050610555818585610f39565b600191505092915050565b6000600254905090565b600560009054906101000a900473ffffffffffffffffffffffffffffffffffffffff1681565b60008061059b610f31565b90506105a8858285611102565b6105b385858561118e565b60019150509392505050565b60006105c96108a2565b905060006105e33434476105dd9190611bb5565b84610adb565b9050828111610627576040517f08c379a000000000000000000000000000000000000000000000000000000000815260040161061e90611c35565b60405180910390fd5b600560009054906101000a900473ffffffffffffffffffffffffffffffffffffffff1673ffffffffffffffffffffffffffffffffffffffff1663a9059cbb33836040518363ffffffff1660e01b8152600401610684929190611c55565b6020604051808303816000875af11580156106a3573d6000803e3d6000fd5b505050506040513d601f19601f820116820180604052508101906106c79190611caa565b50505050565b60006012905090565b6000806106e1610f31565b90506107028185856106f38589610eaa565b6106fd9190611cd7565b610f39565b600191505092915050565b60008060008311610753576040517f08c379a000000000000000000000000000000000000000000000000000000000815260040161074a90611d7d565b60405180910390fd5b60004790506000610762610560565b905060008186846107739190611d9d565b61077d9190611e0e565b90506000828761078b6108a2565b6107959190611d9d565b61079f9190611e0e565b90506107ab3388611404565b3373ffffffffffffffffffffffffffffffffffffffff166108fc839081150290604051600060405180830381858888f193505050501580156107f1573d6000803e3d6000fd5b50600560009054906101000a900473ffffffffffffffffffffffffffffffffffffffff1673ffffffffffffffffffffffffffffffffffffffff1663a9059cbb33896040518363ffffffff1660e01b815260040161084f929190611c55565b6020604051808303816000875af115801561086e573d6000803e3d6000fd5b505050506040513d601f19601f820116820180604052508101906108929190611caa565b5081819550955050505050915091565b6000600560009054906101000a900473ffffffffffffffffffffffffffffffffffffffff1673ffffffffffffffffffffffffffffffffffffffff166370a08231306040518263ffffffff1660e01b81526004016108ff919061192b565b602060405180830381865afa15801561091c573d6000803e3d6000fd5b505050506040513d601f19601f820116820180604052508101906109409190611e54565b905090565b600061094f6108a2565b9050600061095e848347610adb565b9050828110156109a3576040517f08c379a000000000000000000000000000000000000000000000000000000000815260040161099a90611c35565b60405180910390fd5b600560009054906101000a900473ffffffffffffffffffffffffffffffffffffffff1673ffffffffffffffffffffffffffffffffffffffff166323b872dd3330876040518463ffffffff1660e01b8152600401610a0293929190611e81565b6020604051808303816000875af1158015610a21573d6000803e3d6000fd5b505050506040513d601f19601f82011682018060405250810190610a459190611caa565b503373ffffffffffffffffffffffffffffffffffffffff166108fc829081150290604051600060405180830381858888f19350505050158015610a8c573d6000803e3d6000fd5b5050505050565b60008060008373ffffffffffffffffffffffffffffffffffffffff1673ffffffffffffffffffffffffffffffffffffffff168152602001908152602001600020549050919050565b60008083118015610aec5750600082115b610b2b576040517f08c379a0000000000000000000000000000000000000000000000000000000008152600401610b2290611f04565b60405180910390fd5b6000606385610b3a9190611d9d565b905060008382610b4a9190611d9d565b9050600082606487610b5c9190611d9d565b610b669190611cd7565b90508082610b749190611e0e565b93505050509392505050565b606060048054610b8f90611b55565b80601f0160208091040260200160405190810160405280929190818152602001828054610bbb90611b55565b8015610c085780601f10610bdd57610100808354040283529160200191610c08565b820191906000526020600020905b815481529060010190602001808311610beb57829003601f168201915b5050505050905090565b600080610c1d610f31565b90506000610c2b8286610eaa565b905083811015610c70576040517f08c379a0000000000000000000000000000000000000000000000000000000008152600401610c6790611f96565b60405180910390fd5b610c7d8286868403610f39565b60019250505092915050565b600080610c94610f31565b9050610ca181858561118e565b600191505092915050565b60008060004790506000610cbe6108a2565b90506000600560009054906101000a900473ffffffffffffffffffffffffffffffffffffffff16905060008203610d82578073ffffffffffffffffffffffffffffffffffffffff166323b872dd3330896040518463ffffffff1660e01b8152600401610d2c93929190611e81565b6020604051808303816000875af1158015610d4b573d6000803e3d6000fd5b505050506040513d601f19601f82011682018060405250810190610d6f9190611caa565b50829350610d7d33856115d1565b610e9e565b60003484610d909190611bb5565b90506000818434610da19190611d9d565b610dab9190611e0e565b905080881015610df0576040517f08c379a0000000000000000000000000000000000000000000000000000000008152600401610de790612028565b60405180910390fd5b8273ffffffffffffffffffffffffffffffffffffffff166323b872dd3330846040518463ffffffff1660e01b8152600401610e2d93929190611e81565b6020604051808303816000875af1158015610e4c573d6000803e3d6000fd5b505050506040513d601f19601f82011682018060405250810190610e709190611caa565b508134610e7b610560565b610e859190611d9d565b610e8f9190611e0e565b9550610e9b33876115d1565b50505b83945050505050919050565b6000600160008473ffffffffffffffffffffffffffffffffffffffff1673ffffffffffffffffffffffffffffffffffffffff16815260200190815260200160002060008373ffffffffffffffffffffffffffffffffffffffff1673ffffffffffffffffffffffffffffffffffffffff16815260200190815260200160002054905092915050565b600033905090565b600073ffffffffffffffffffffffffffffffffffffffff168373ffffffffffffffffffffffffffffffffffffffff1603610fa8576040517f08c379a0000000000000000000000000000000000000000000000000000000008152600401610f9f906120ba565b60405180910390fd5b600073ffffffffffffffffffffffffffffffffffffffff168273ffffffffffffffffffffffffffffffffffffffff1603611017576040517f08c379a000000000000000000000000000000000000000000000000000000000815260040161100e9061214c565b60405180910390fd5b80600160008573ffffffffffffffffffffffffffffffffffffffff1673ffffffffffffffffffffffffffffffffffffffff16815260200190815260200160002060008473ffffffffffffffffffffffffffffffffffffffff1673ffffffffffffffffffffffffffffffffffffffff168152602001908152602001600020819055508173ffffffffffffffffffffffffffffffffffffffff168373ffffffffffffffffffffffffffffffffffffffff167f8c5be1e5ebec7d5bd14f71427d1e84f3dd0314c0f7b2291e5b200ac8c7c3b925836040516110f59190611901565b60405180910390a3505050565b600061110e8484610eaa565b90507fffffffffffffffffffffffffffffffffffffffffffffffffffffffffffffffff8114611188578181101561117a576040517f08c379a0000000000000000000000000000000000000000000000000000000008152600401611171906121b8565b60405180910390fd5b6111878484848403610f39565b5b50505050565b600073ffffffffffffffffffffffffffffffffffffffff168373ffffffffffffffffffffffffffffffffffffffff16036111fd576040517f08c379a00000000000000000000000000000000000000000000000000000000081526004016111f49061224a565b60405180910390fd5b600073ffffffffffffffffffffffffffffffffffffffff168273ffffffffffffffffffffffffffffffffffffffff160361126c576040517f08c379a0000000000000000000000000000000000000000000000000000000008152600401611263906122dc565b60405180910390fd5b611277838383611727565b60008060008573ffffffffffffffffffffffffffffffffffffffff1673ffffffffffffffffffffffffffffffffffffffff168152602001908152602001600020549050818110156112fd576040517f08c379a00000000000000000000000000000000000000000000000000000000081526004016112f49061236e565b60405180910390fd5b8181036000808673ffffffffffffffffffffffffffffffffffffffff1673ffffffffffffffffffffffffffffffffffffffff16815260200190815260200160002081905550816000808573ffffffffffffffffffffffffffffffffffffffff1673ffffffffffffffffffffffffffffffffffffffff168152602001908152602001600020600082825401925050819055508273ffffffffffffffffffffffffffffffffffffffff168473ffffffffffffffffffffffffffffffffffffffff167fddf252ad1be2c89b69c2b068fc378daa952ba7f163c4a11628f55a4df523b3ef846040516113eb9190611901565b60405180910390a36113fe84848461172c565b50505050565b600073ffffffffffffffffffffffffffffffffffffffff168273ffffffffffffffffffffffffffffffffffffffff1603611473576040517f08c379a000000000000000000000000000000000000000000000000000000000815260040161146a90612400565b60405180910390fd5b61147f82600083611727565b60008060008473ffffffffffffffffffffffffffffffffffffffff1673ffffffffffffffffffffffffffffffffffffffff16815260200190815260200160002054905081811015611505576040517f08c379a00000000000000000000000000000000000000000000000000000000081526004016114fc90612492565b60405180910390fd5b8181036000808573ffffffffffffffffffffffffffffffffffffffff1673ffffffffffffffffffffffffffffffffffffffff1681526020019081526020016000208190555081600260008282540392505081905550600073ffffffffffffffffffffffffffffffffffffffff168373ffffffffffffffffffffffffffffffffffffffff167fddf252ad1be2c89b69c2b068fc378daa952ba7f163c4a11628f55a4df523b3ef846040516115b89190611901565b60405180910390a36115cc8360008461172c565b505050565b600073ffffffffffffffffffffffffffffffffffffffff168273ffffffffffffffffffffffffffffffffffffffff1603611640576040517f08c379a0000000000000000000000000000000000000000000000000000000008152600401611637906124fe565b60405180910390fd5b61164c60008383611727565b806002600082825461165e9190611cd7565b92505081905550806000808473ffffffffffffffffffffffffffffffffffffffff1673ffffffffffffffffffffffffffffffffffffffff168152602001908152602001600020600082825401925050819055508173ffffffffffffffffffffffffffffffffffffffff16600073ffffffffffffffffffffffffffffffffffffffff167fddf252ad1be2c89b69c2b068fc378daa952ba7f163c4a11628f55a4df523b3ef8360405161170f9190611901565b60405180910390a36117236000838361172c565b5050565b505050565b505050565b600081519050919050565b600082825260208201905092915050565b60005b8381101561176b578082015181840152602081019050611750565b60008484015250505050565b6000601f19601f8301169050919050565b600061179382611731565b61179d818561173c565b93506117ad81856020860161174d565b6117b681611777565b840191505092915050565b600060208201905081810360008301526117db8184611788565b905092915050565b600080fd5b600073ffffffffffffffffffffffffffffffffffffffff82169050919050565b6000611813826117e8565b9050919050565b61182381611808565b811461182e57600080fd5b50565b6000813590506118408161181a565b92915050565b6000819050919050565b61185981611846565b811461186457600080fd5b50565b60008135905061187681611850565b92915050565b60008060408385031215611893576118926117e3565b5b60006118a185828601611831565b92505060206118b285828601611867565b9150509250929050565b60008115159050919050565b6118d1816118bc565b82525050565b60006020820190506118ec60008301846118c8565b92915050565b6118fb81611846565b82525050565b600060208201905061191660008301846118f2565b92915050565b61192581611808565b82525050565b6000602082019050611940600083018461191c565b92915050565b60008060006060848603121561195f5761195e6117e3565b5b600061196d86828701611831565b935050602061197e86828701611831565b925050604061198f86828701611867565b9150509250925092565b6000602082840312156119af576119ae6117e3565b5b60006119bd84828501611867565b91505092915050565b600060ff82169050919050565b6119dc816119c6565b82525050565b60006020820190506119f760008301846119d3565b92915050565b6000604082019050611a1260008301856118f2565b611a1f60208301846118f2565b9392505050565b60008060408385031215611a3d57611a3c6117e3565b5b6000611a4b85828601611867565b9250506020611a5c85828601611867565b9150509250929050565b600060208284031215611a7c57611a7b6117e3565b5b6000611a8a84828501611831565b91505092915050565b600080600060608486031215611aac57611aab6117e3565b5b6000611aba86828701611867565b9350506020611acb86828701611867565b9250506040611adc86828701611867565b9150509250925092565b60008060408385031215611afd57611afc6117e3565b5b6000611b0b85828601611831565b9250506020611b1c85828601611831565b9150509250929050565b7f4e487b7100000000000000000000000000000000000000000000000000000000600052602260045260246000fd5b60006002820490506001821680611b6d57607f821691505b602082108103611b8057611b7f611b26565b5b50919050565b7f4e487b7100000000000000000000000000000000000000000000000000000000600052601160045260246000fd5b6000611bc082611846565b9150611bcb83611846565b9250828203905081811115611be357611be2611b86565b5b92915050565b7f696e73756666696369656e74206f757470757420616d6f756e74000000000000600082015250565b6000611c1f601a8361173c565b9150611c2a82611be9565b602082019050919050565b60006020820190508181036000830152611c4e81611c12565b9050919050565b6000604082019050611c6a600083018561191c565b611c7760208301846118f2565b9392505050565b611c87816118bc565b8114611c9257600080fd5b50565b600081519050611ca481611c7e565b92915050565b600060208284031215611cc057611cbf6117e3565b5b6000611cce84828501611c95565b91505092915050565b6000611ce282611846565b9150611ced83611846565b9250828201905080821115611d0557611d04611b86565b5b92915050565b7f5f616d6f756e742073686f756c642062652067726561746572207468616e207a60008201527f65726f0000000000000000000000000000000000000000000000000000000000602082015250565b6000611d6760238361173c565b9150611d7282611d0b565b604082019050919050565b60006020820190508181036000830152611d9681611d5a565b9050919050565b6000611da882611846565b9150611db383611846565b9250828202611dc181611846565b91508282048414831517611dd857611dd7611b86565b5b5092915050565b7f4e487b7100000000000000000000000000000000000000000000000000000000600052601260045260246000fd5b6000611e1982611846565b9150611e2483611846565b925082611e3457611e33611ddf565b5b828204905092915050565b600081519050611e4e81611850565b92915050565b600060208284031215611e6a57611e696117e3565b5b6000611e7884828501611e3f565b91505092915050565b6000606082019050611e96600083018661191c565b611ea3602083018561191c565b611eb060408301846118f2565b949350505050565b7f696e76616c696420726573657276657300000000000000000000000000000000600082015250565b6000611eee60108361173c565b9150611ef982611eb8565b602082019050919050565b60006020820190508181036000830152611f1d81611ee1565b9050919050565b7f45524332303a2064656372656173656420616c6c6f77616e63652062656c6f7760008201527f207a65726f000000000000000000000000000000000000000000000000000000602082015250565b6000611f8060258361173c565b9150611f8b82611f24565b604082019050919050565b60006020820190508181036000830152611faf81611f73565b9050919050565b7f416d6f756e74206f6620746f6b656e732073656e74206973206c65737320746860008201527f616e20746865206d696e696d756d20746f6b656e732072657175697265640000602082015250565b6000612012603e8361173c565b915061201d82611fb6565b604082019050919050565b6000602082019050818103600083015261204181612005565b9050919050565b7f45524332303a20617070726f76652066726f6d20746865207a65726f2061646460008201527f7265737300000000000000000000000000000000000000000000000000000000602082015250565b60006120a460248361173c565b91506120af82612048565b604082019050919050565b600060208201905081810360008301526120d381612097565b9050919050565b7f45524332303a20617070726f766520746f20746865207a65726f20616464726560008201527f7373000000000000000000000000000000000000000000000000000000000000602082015250565b600061213660228361173c565b9150612141826120da565b604082019050919050565b6000602082019050818103600083015261216581612129565b9050919050565b7f45524332303a20696e73756666696369656e7420616c6c6f77616e6365000000600082015250565b60006121a2601d8361173c565b91506121ad8261216c565b602082019050919050565b600060208201905081810360008301526121d181612195565b9050919050565b7f45524332303a207472616e736665722066726f6d20746865207a65726f20616460008201527f6472657373000000000000000000000000000000000000000000000000000000602082015250565b600061223460258361173c565b915061223f826121d8565b604082019050919050565b6000602082019050818103600083015261226381612227565b9050919050565b7f45524332303a207472616e7366657220746f20746865207a65726f206164647260008201527f6573730000000000000000000000000000000000000000000000000000000000602082015250565b60006122c660238361173c565b91506122d18261226a565b604082019050919050565b600060208201905081810360008301526122f5816122b9565b9050919050565b7f45524332303a207472616e7366657220616d6f756e742065786365656473206260008201527f616c616e63650000000000000000000000000000000000000000000000000000602082015250565b600061235860268361173c565b9150612363826122fc565b604082019050919050565b600060208201905081810360008301526123878161234b565b9050919050565b7f45524332303a206275726e2066726f6d20746865207a65726f2061646472657360008201527f7300000000000000000000000000000000000000000000000000000000000000602082015250565b60006123ea60218361173c565b91506123f58261238e565b604082019050919050565b60006020820190508181036000830152612419816123dd565b9050919050565b7f45524332303a206275726e20616d6f756e7420657863656564732062616c616e60008201527f6365000000000000000000000000000000000000000000000000000000000000602082015250565b600061247c60228361173c565b915061248782612420565b604082019050919050565b600060208201905081810360008301526124ab8161246f565b9050919050565b7f45524332303a206d696e7420746f20746865207a65726f206164647265737300600082015250565b60006124e8601f8361173c565b91506124f3826124b2565b602082019050919050565b60006020820190508181036000830152612517816124db565b905091905056fea26469706673582212201ff814bdb0b55e2c1198215dd12819033cfeaacc338ad9bec6e7eab9750ed7a064736f6c63430008110033",
  "linkReferences": {},
  "deployedLinkReferences": {}
}